{
  "contractName": "campaign",
  "abi": [
    {
      "constant": true,
      "inputs": [],
      "name": "manager",
      "outputs": [
        {
          "name": "",
          "type": "address"
        }
      ],
      "payable": false,
      "stateMutability": "view",
      "type": "function"
    },
    {
      "constant": true,
      "inputs": [],
      "name": "approversCount",
      "outputs": [
        {
          "name": "",
          "type": "uint256"
        }
      ],
      "payable": false,
      "stateMutability": "view",
      "type": "function"
    },
    {
      "constant": true,
      "inputs": [],
      "name": "minimumcontribution",
      "outputs": [
        {
          "name": "",
          "type": "uint256"
        }
      ],
      "payable": false,
      "stateMutability": "view",
      "type": "function"
    },
    {
      "constant": true,
      "inputs": [
        {
          "name": "",
          "type": "uint256"
        }
      ],
      "name": "request",
      "outputs": [
        {
          "name": "description",
          "type": "string"
        },
        {
          "name": "value",
          "type": "uint256"
        },
        {
          "name": "recipent",
          "type": "address"
        },
        {
          "name": "complete",
          "type": "bool"
        },
        {
          "name": "approvalCount",
          "type": "uint256"
        }
      ],
      "payable": false,
      "stateMutability": "view",
      "type": "function"
    },
    {
      "inputs": [
        {
          "name": "minimum",
          "type": "uint256"
        },
        {
          "name": "creator",
          "type": "address"
        }
      ],
      "payable": false,
      "stateMutability": "nonpayable",
      "type": "constructor"
    },
    {
      "constant": false,
      "inputs": [],
      "name": "contribute",
      "outputs": [],
      "payable": true,
      "stateMutability": "payable",
      "type": "function"
    },
    {
      "constant": false,
      "inputs": [
        {
          "name": "description",
          "type": "string"
        },
        {
          "name": "value",
          "type": "uint256"
        },
        {
          "name": "recipent",
          "type": "address"
        }
      ],
      "name": "createRequest",
      "outputs": [],
      "payable": false,
      "stateMutability": "nonpayable",
      "type": "function"
    },
    {
      "constant": false,
      "inputs": [
        {
          "name": "index",
          "type": "uint256"
        }
      ],
      "name": "approve",
      "outputs": [],
      "payable": false,
      "stateMutability": "nonpayable",
      "type": "function"
    },
    {
      "constant": false,
      "inputs": [
        {
          "name": "index",
          "type": "uint256"
        }
      ],
      "name": "finalizeRequest",
      "outputs": [],
      "payable": false,
      "stateMutability": "nonpayable",
      "type": "function"
    }
  ],
  "bytecode": "0x608060405234801561001057600080fd5b506040516040806108458339810180604052604081101561003057600080fd5b50805160209091015160008054600160a060020a03909216600160a060020a03199092169190911790556001556107d98061006c6000396000f3fe60806040526004361061008d5763ffffffff7c0100000000000000000000000000000000000000000000000000000000600035041663034410068114610092578063481c6a75146100be57806382fde093146100ef5780638a9cfd5514610116578063a8622ffe146101d7578063b759f954146101ec578063d7bb99ba14610216578063d845a4b31461021e575b600080fd5b34801561009e57600080fd5b506100bc600480360360208110156100b557600080fd5b50356102f2565b005b3480156100ca57600080fd5b506100d36103d9565b60408051600160a060020a039092168252519081900360200190f35b3480156100fb57600080fd5b506101046103e8565b60408051918252519081900360200190f35b34801561012257600080fd5b506100bc6004803603606081101561013957600080fd5b81019060208101813564010000000081111561015457600080fd5b82018360208201111561016657600080fd5b8035906020019184600183028401116401000000008311171561018857600080fd5b91908080601f0160208091040260200160405190810160405280939291908181526020018383808284376000920191909152509295505082359350505060200135600160a060020a03166103ee565b3480156101e357600080fd5b50610104610521565b3480156101f857600080fd5b506100bc6004803603602081101561020f57600080fd5b5035610527565b6100bc6105b5565b34801561022a57600080fd5b506102486004803603602081101561024157600080fd5b50356105ec565b604051808060200186815260200185600160a060020a0316600160a060020a0316815260200184151515158152602001838152602001828103825287818151815260200191508051906020019080838360005b838110156102b357818101518382015260200161029b565b50505050905090810190601f1680156102e05780820380516001836020036101000a031916815260200191505b50965050505050505060405180910390f35b600054600160a060020a0316331461030957600080fd5b600060038281548110151561031a57fe5b906000526020600020906005020190508060020160149054906101000a900460ff1615151561034857600080fd5b60045460029004816003015411151561036057600080fd5b60028101805474ff000000000000000000000000000000000000000019167401000000000000000000000000000000000000000017908190556001820154604051600160a060020a039092169181156108fc0291906000818181858888f193505050501580156103d4573d6000803e3d6000fd5b505050565b600054600160a060020a031681565b60045481565b600054600160a060020a0316331461040557600080fd5b61040d6106d7565b506040805160a0810182528481526020808201859052600160a060020a0384169282019290925260006060820181905260808201819052600380546001810180835591909252825180519394919385936005027fc2575a0e9e593c00f959f8c92f12db2869c3395a3b0502d05e2516446f71f85b0192610491928492910190610712565b5060208201516001820155604082015160028201805460608501511515740100000000000000000000000000000000000000000274ff000000000000000000000000000000000000000019600160a060020a0390941673ffffffffffffffffffffffffffffffffffffffff1990921691909117929092169190911790556080909101516003909101555050505050565b60015481565b600060038281548110151561053857fe5b6000918252602080832033845260029091526040909220546005909102909101915060ff16151561056857600080fd5b33600090815260048201602052604090205460ff161561058757600080fd5b3360009081526004820160205260409020805460ff1916600190811790915560039091018054909101905550565b6001543410156105c457600080fd5b336000908152600260205260409020805460ff19166001908117909155600480549091019055565b60038054829081106105fa57fe5b60009182526020918290206005919091020180546040805160026001841615610100026000190190931692909204601f8101859004850283018501909152808252919350918391908301828280156106935780601f1061066857610100808354040283529160200191610693565b820191906000526020600020905b81548152906001019060200180831161067657829003601f168201915b505050506001830154600284015460039094015492939092600160a060020a03821692507401000000000000000000000000000000000000000090910460ff169085565b60a06040519081016040528060608152602001600081526020016000600160a060020a03168152602001600015158152602001600081525090565b828054600181600116156101000203166002900490600052602060002090601f016020900481019282601f1061075357805160ff1916838001178555610780565b82800160010185558215610780579182015b82811115610780578251825591602001919060010190610765565b5061078c929150610790565b5090565b6107aa91905b8082111561078c5760008155600101610796565b9056fea165627a7a72305820d743f38fc7d666098337a8c0d64e92244879bac23f718c88ea6a277593e571cb0029",
  "source": "pragma solidity >=0.4.22 <0.6.0;\r\n\r\ncontract campaignFactory{\r\n    \r\n    address[] public deployedCampaign;\r\n    \r\n    function deployCampaignContract(uint256 minimum) public {\r\n        address newAddress =address(new campaign(minimum,msg.sender));\r\n        deployedCampaign.push(newAddress);\r\n    }\r\n    \r\n    function getAllDeployedCampaign() public view  returns(address[] memory){\r\n        return deployedCampaign;\r\n    }\r\n    \r\n    \r\n}\r\n\r\ncontract campaign{\r\n    struct Request{\r\n        string description;\r\n        uint256 value;\r\n        address payable recipent;\r\n        bool complete;\r\n        uint256 approvalCount;\r\n        mapping(address => bool) approvals;\r\n        \r\n    }\r\n    \r\n    address public manager;\r\n    uint256 public minimumcontribution;\r\n    mapping(address => bool) approvers;\r\n    Request[] public request;\r\n    uint256 public approversCount;\r\n    \r\n    modifier restricted(){\r\n        require(msg.sender == manager);\r\n        _;\r\n    }\r\n    \r\n    constructor(uint256 minimum,address creator) public{\r\n        manager = creator;\r\n        minimumcontribution = minimum;\r\n    }\r\n    \r\n    function contribute() payable public {\r\n        require(msg.value >= minimumcontribution);\r\n        approvers[msg.sender] = true;\r\n        approversCount++;\r\n    }\r\n    \r\n    \r\n    function createRequest(string memory description,uint256 value,address payable recipent)  public restricted {\r\n      Request memory newRequest = Request({\r\n          description: description,\r\n          value: value,\r\n          recipent: recipent,\r\n          complete: false,\r\n          approvalCount: 0\r\n      });\r\n      request.push(newRequest);\r\n    }\r\n    \r\n    function approve(uint index) public {\r\n        Request storage request = request[index];\r\n        require(approvers[msg.sender]);\r\n        require(!request.approvals[msg.sender]);\r\n        request.approvals[msg.sender]=true;\r\n        request.approvalCount++;\r\n    }\r\n    \r\n    function finalizeRequest(uint index) public restricted {\r\n        Request storage request = request[index]; \r\n        require(!request.complete);\r\n        require(request.approvalCount > (approversCount / 2));\r\n        request.complete = true;\r\n        request.recipent.transfer(request.value);\r\n    }\r\n}",
  "sourcePath": "F:/Learning/Ethereum/campaign/campaign/Truffle/contracts/campaign.sol",
  "compiler": {
    "name": "solc",
    "version": "0.5.0+commit.1d4f565a.Emscripten.clang"
  },
  "schemaVersion": "3.0.9",
  "updatedAt": "2019-05-24T16:58:08.690Z",
  "devdoc": {
    "methods": {}
  },
  "userdoc": {
    "methods": {}
  }
}