{
  "contractName": "campaignFactory",
  "abi": [
    {
      "constant": true,
      "inputs": [
        {
          "name": "",
          "type": "uint256"
        }
      ],
      "name": "deployedCampaign",
      "outputs": [
        {
          "name": "",
          "type": "address"
        }
      ],
      "payable": false,
      "stateMutability": "view",
      "type": "function"
    },
    {
      "constant": false,
      "inputs": [
        {
          "name": "minimum",
          "type": "uint256"
        }
      ],
      "name": "deployCampaignContract",
      "outputs": [],
      "payable": false,
      "stateMutability": "nonpayable",
      "type": "function"
    },
    {
      "constant": true,
      "inputs": [],
      "name": "getAllDeployedCampaign",
      "outputs": [
        {
          "name": "",
          "type": "address[]"
        }
      ],
      "payable": false,
      "stateMutability": "view",
      "type": "function"
    }
  ],
  "bytecode": "0x608060405234801561001057600080fd5b50610bae806100206000396000f3fe6080604052600436106100565763ffffffff7c01000000000000000000000000000000000000000000000000000000006000350416638315e41c811461005b578063b7ccb9ab14610087578063dde340df146100da575b600080fd5b34801561006757600080fd5b506100856004803603602081101561007e57600080fd5b503561013f565b005b34801561009357600080fd5b506100b1600480360360208110156100aa57600080fd5b50356101f4565b6040805173ffffffffffffffffffffffffffffffffffffffff9092168252519081900360200190f35b3480156100e657600080fd5b506100ef610229565b60408051602080825283518183015283519192839290830191858101910280838360005b8381101561012b578181015183820152602001610113565b505050509050019250505060405180910390f35b6000813361014b610298565b91825273ffffffffffffffffffffffffffffffffffffffff166020820152604080519182900301906000f080158015610188573d6000803e3d6000fd5b50600080546001810182559080527f290decd9548b62a8d60345a988386fc84ba6bc95484008f6362f93160ef3e56301805473ffffffffffffffffffffffffffffffffffffffff191673ffffffffffffffffffffffffffffffffffffffff929092169190911790555050565b600080548290811061020257fe5b60009182526020909120015473ffffffffffffffffffffffffffffffffffffffff16905081565b6060600080548060200260200160405190810160405280929190818152602001828054801561028e57602002820191906000526020600020905b815473ffffffffffffffffffffffffffffffffffffffff168152600190910190602001808311610263575b5050505050905090565b6040516108da806102a98339019056fe608060405234801561001057600080fd5b506040516040806108da8339810180604052604081101561003057600080fd5b50805160209091015160008054600160a060020a03909216600160a060020a031990921691909117905560015561086e8061006c6000396000f3fe6080604052600436106100a35763ffffffff7c01000000000000000000000000000000000000000000000000000000006000350416630344100681146100a85780633410452a146100d45780634051ddac146100fb578063481c6a751461014457806382fde093146101755780638a9cfd551461018a578063a8622ffe1461024b578063b759f95414610260578063d7bb99ba1461028a578063d845a4b314610292575b600080fd5b3480156100b457600080fd5b506100d2600480360360208110156100cb57600080fd5b5035610366565b005b3480156100e057600080fd5b506100e961044d565b60408051918252519081900360200190f35b34801561010757600080fd5b50610110610454565b604080519586526020860194909452848401929092526060840152600160a060020a03166080830152519081900360a00190f35b34801561015057600080fd5b50610159610471565b60408051600160a060020a039092168252519081900360200190f35b34801561018157600080fd5b506100e9610480565b34801561019657600080fd5b506100d2600480360360608110156101ad57600080fd5b8101906020810181356401000000008111156101c857600080fd5b8201836020820111156101da57600080fd5b803590602001918460018302840111640100000000831117156101fc57600080fd5b91908080601f0160208091040260200160405190810160405280939291908181526020018383808284376000920191909152509295505082359350505060200135600160a060020a0316610486565b34801561025757600080fd5b506100e96105b9565b34801561026c57600080fd5b506100d26004803603602081101561028357600080fd5b50356105bf565b6100d261064d565b34801561029e57600080fd5b506102bc600480360360208110156102b557600080fd5b5035610684565b604051808060200186815260200185600160a060020a0316600160a060020a0316815260200184151515158152602001838152602001828103825287818151815260200191508051906020019080838360005b8381101561032757818101518382015260200161030f565b50505050905090810190601f1680156103545780820380516001836020036101000a031916815260200191505b50965050505050505060405180910390f35b600054600160a060020a0316331461037d57600080fd5b600060038281548110151561038e57fe5b906000526020600020906005020190508060020160149054906101000a900460ff161515156103bc57600080fd5b6004546002900481600301541115156103d457600080fd5b60028101805474ff000000000000000000000000000000000000000019167401000000000000000000000000000000000000000017908190556001820154604051600160a060020a039092169181156108fc0291906000818181858888f19350505050158015610448573d6000803e3d6000fd5b505050565b6003545b90565b6001546003546004546000549293303193600160a060020a031690565b600054600160a060020a031681565b60045481565b600054600160a060020a0316331461049d57600080fd5b6104a561076f565b506040805160a0810182528481526020808201859052600160a060020a0384169282019290925260006060820181905260808201819052600380546001810180835591909252825180519394919385936005027fc2575a0e9e593c00f959f8c92f12db2869c3395a3b0502d05e2516446f71f85b01926105299284929101906107aa565b5060208201516001820155604082015160028201805460608501511515740100000000000000000000000000000000000000000274ff000000000000000000000000000000000000000019600160a060020a0390941673ffffffffffffffffffffffffffffffffffffffff1990921691909117929092169190911790556080909101516003909101555050505050565b60015481565b60006003828154811015156105d057fe5b6000918252602080832033845260029091526040909220546005909102909101915060ff16151561060057600080fd5b33600090815260048201602052604090205460ff161561061f57600080fd5b3360009081526004820160205260409020805460ff1916600190811790915560039091018054909101905550565b60015434101561065c57600080fd5b336000908152600260205260409020805460ff19166001908117909155600480549091019055565b600380548290811061069257fe5b60009182526020918290206005919091020180546040805160026001841615610100026000190190931692909204601f81018590048502830185019091528082529193509183919083018282801561072b5780601f106107005761010080835404028352916020019161072b565b820191906000526020600020905b81548152906001019060200180831161070e57829003601f168201915b505050506001830154600284015460039094015492939092600160a060020a03821692507401000000000000000000000000000000000000000090910460ff169085565b60a06040519081016040528060608152602001600081526020016000600160a060020a03168152602001600015158152602001600081525090565b828054600181600116156101000203166002900490600052602060002090601f016020900481019282601f106107eb57805160ff1916838001178555610818565b82800160010185558215610818579182015b828111156108185782518255916020019190600101906107fd565b50610824929150610828565b5090565b61045191905b80821115610824576000815560010161082e56fea165627a7a7230582026baae52217391e0e9bfaa72a3ee01cd01b07efd4ce5e1649a26e6827d6834380029a165627a7a72305820269cc66a4b236d7cbd28f9d3e6fe7b8804d164d9667cecfbf984f091076c4b190029",
  "source": "pragma solidity >=0.4.22 <0.6.0;\r\n\r\ncontract campaignFactory{\r\n    \r\n    address[] public deployedCampaign;\r\n    \r\n    function deployCampaignContract(uint256 minimum) public {\r\n        address newAddress =address(new campaign(minimum,msg.sender));\r\n        deployedCampaign.push(newAddress);\r\n    }\r\n    \r\n    function getAllDeployedCampaign() public view  returns(address[] memory){\r\n        return deployedCampaign;\r\n    }\r\n    \r\n    \r\n}\r\n\r\ncontract campaign{\r\n    struct Request{\r\n        string description;\r\n        uint256 value;\r\n        address payable recipent;\r\n        bool complete;\r\n        uint256 approvalCount;\r\n        mapping(address => bool) approvals;\r\n        \r\n    }\r\n    \r\n    address public manager;\r\n    uint256 public minimumcontribution;\r\n    mapping(address => bool) approvers;\r\n    Request[] public request;\r\n    uint256 public approversCount;\r\n    \r\n    modifier restricted(){\r\n        require(msg.sender == manager);\r\n        _;\r\n    }\r\n    \r\n    constructor(uint256 minimum,address creator) public{\r\n        manager = creator;\r\n        minimumcontribution = minimum;\r\n    }\r\n    \r\n    function contribute() payable public {\r\n        require(msg.value >= minimumcontribution);\r\n        approvers[msg.sender] = true;\r\n        approversCount++;\r\n    }\r\n    \r\n    \r\n    function createRequest(string memory description,uint256 value,address payable recipent)  public restricted {\r\n      Request memory newRequest = Request({\r\n          description: description,\r\n          value: value,\r\n          recipent: recipent,\r\n          complete: false,\r\n          approvalCount: 0\r\n      });\r\n      request.push(newRequest);\r\n    }\r\n    \r\n    function approve(uint index) public {\r\n        Request storage request = request[index];\r\n        require(approvers[msg.sender]);\r\n        require(!request.approvals[msg.sender]);\r\n        request.approvals[msg.sender]=true;\r\n        request.approvalCount++;\r\n    }\r\n    \r\n    function finalizeRequest(uint index) public restricted {\r\n        Request storage request = request[index]; \r\n        require(!request.complete);\r\n        require(request.approvalCount > (approversCount / 2));\r\n        request.complete = true;\r\n        request.recipent.transfer(request.value);\r\n    }\r\n    \r\n    function getSummary() public view returns(uint,uint,uint,uint,address){\r\n        return(\r\n               minimumcontribution,\r\n               address(this).balance,\r\n               request.length,\r\n               approversCount,\r\n               manager\r\n            );\r\n    }\r\n    \r\n    function getRequestsCount() public view returns (uint){\r\n        return request.length;\r\n    }\r\n}",
  "sourcePath": "F:/Learning/Ethereum/campaign/campaign/Truffle/contracts/campaign.sol",
  "compiler": {
    "name": "solc",
    "version": "0.5.0+commit.1d4f565a.Emscripten.clang"
  },
  "schemaVersion": "3.0.9",
  "updatedAt": "2019-05-30T05:50:54.530Z",
  "devdoc": {
    "methods": {}
  },
  "userdoc": {
    "methods": {}
  }
}